{
  "contractName": "fileStorage",
  "abi": [
    {
      "inputs": [
        {
          "internalType": "uint256",
          "name": "",
          "type": "uint256"
        }
      ],
      "name": "files",
      "outputs": [
        {
          "internalType": "uint256",
          "name": "_id",
          "type": "uint256"
        },
        {
          "internalType": "string",
          "name": "_filename",
          "type": "string"
        },
        {
          "internalType": "string",
          "name": "_hash",
          "type": "string"
        }
      ],
      "stateMutability": "view",
      "type": "function"
    },
    {
      "inputs": [
        {
          "internalType": "string",
          "name": "_filename",
          "type": "string"
        },
        {
          "internalType": "string",
          "name": "_hash",
          "type": "string"
        }
      ],
      "name": "addfile",
      "outputs": [],
      "stateMutability": "nonpayable",
      "type": "function"
    }
  ],
  "bytecode": "0x60806040526000805534801561001457600080fd5b50610717806100246000396000f3fe608060405234801561001057600080fd5b50600436106100365760003560e01c806336328e9e1461003b578063f4c714b414610057575b600080fd5b61005560048036038101906100509190610453565b610089565b005b610071600480360381019061006c9190610501565b61011c565b604051610080939291906105c5565b60405180910390f35b60008081548092919061009b90610639565b9190505550604051806060016040528060005481526020018381526020018281525060016000805481526020019081526020016000206000820151816000015560208201518160010190805190602001906100f7929190610256565b506040820151816002019080519060200190610114929190610256565b509050505050565b6001602052806000526040600020600091509050806000015490806001018054610145906106b0565b80601f0160208091040260200160405190810160405280929190818152602001828054610171906106b0565b80156101be5780601f10610193576101008083540402835291602001916101be565b820191906000526020600020905b8154815290600101906020018083116101a157829003601f168201915b5050505050908060020180546101d3906106b0565b80601f01602080910402602001604051908101604052809291908181526020018280546101ff906106b0565b801561024c5780601f106102215761010080835404028352916020019161024c565b820191906000526020600020905b81548152906001019060200180831161022f57829003601f168201915b5050505050905083565b828054610262906106b0565b90600052602060002090601f01602090048101928261028457600085556102cb565b82601f1061029d57805160ff19168380011785556102cb565b828001600101855582156102cb579182015b828111156102ca5782518255916020019190600101906102af565b5b5090506102d891906102dc565b5090565b5b808211156102f55760008160009055506001016102dd565b5090565b6000604051905090565b600080fd5b600080fd5b600080fd5b600080fd5b6000601f19601f8301169050919050565b7f4e487b7100000000000000000000000000000000000000000000000000000000600052604160045260246000fd5b61036082610317565b810181811067ffffffffffffffff8211171561037f5761037e610328565b5b80604052505050565b60006103926102f9565b905061039e8282610357565b919050565b600067ffffffffffffffff8211156103be576103bd610328565b5b6103c782610317565b9050602081019050919050565b82818337600083830152505050565b60006103f66103f1846103a3565b610388565b90508281526020810184848401111561041257610411610312565b5b61041d8482856103d4565b509392505050565b600082601f83011261043a5761043961030d565b5b813561044a8482602086016103e3565b91505092915050565b6000806040838503121561046a57610469610303565b5b600083013567ffffffffffffffff81111561048857610487610308565b5b61049485828601610425565b925050602083013567ffffffffffffffff8111156104b5576104b4610308565b5b6104c185828601610425565b9150509250929050565b6000819050919050565b6104de816104cb565b81146104e957600080fd5b50565b6000813590506104fb816104d5565b92915050565b60006020828403121561051757610516610303565b5b6000610525848285016104ec565b91505092915050565b610537816104cb565b82525050565b600081519050919050565b600082825260208201905092915050565b60005b8381101561057757808201518184015260208101905061055c565b83811115610586576000848401525b50505050565b60006105978261053d565b6105a18185610548565b93506105b1818560208601610559565b6105ba81610317565b840191505092915050565b60006060820190506105da600083018661052e565b81810360208301526105ec818561058c565b90508181036040830152610600818461058c565b9050949350505050565b7f4e487b7100000000000000000000000000000000000000000000000000000000600052601160045260246000fd5b6000610644826104cb565b91507fffffffffffffffffffffffffffffffffffffffffffffffffffffffffffffffff82036106765761067561060a565b5b600182019050919050565b7f4e487b7100000000000000000000000000000000000000000000000000000000600052602260045260246000fd5b600060028204905060018216806106c857607f821691505b6020821081036106db576106da610681565b5b5091905056fea2646970667358221220f6108454b039f1db8b12199edefe480ccf5f03abfb6af58a9b703fc9ded6321c64736f6c634300080d0033",
  "immutableReferences": {},
  "source": "/*\npragma solidity 0.9.0;\n\n\ncontract hashTest {\n    string varHash;\n    \n    // Write Function\n    function set(string memory _varHash) public {\n        varHash = _varHash;\n    }\n    //Read Function\n    function get() public view returns(string memory){  \n        return varHash;\n    }\n}\n    \n*/\n\n\n\n\n\n\n\n\n\n\n// SPDX-License-Identifier: GPL-3.0\n\npragma solidity >=0.7.0 <0.9.0;\n\n// Prototype of concept\n\ncontract fileStorage {\n    uint filecount = 0;\n    mapping(uint => filedata) public files;\n\n    struct filedata{\n        uint _id;\n        string _filename;\n        string _hash;\n    }\n\n    function addfile(string memory _filename, string memory _hash) public {\n        filecount ++;\n        files[filecount] = filedata(filecount,_filename,_hash);\n    }\n}\n",
  "sourcePath": "/root/prototypes/protosite/src/contracts/hashTest.sol",
  "compiler": {
    "name": "solc",
    "version": "0.8.13+commit.abaa5c0e.Emscripten.clang"
  },
  "schemaVersion": "3.4.5",
  "updatedAt": "2022-03-23T15:49:20.368Z",
  "devdoc": {
    "kind": "dev",
    "methods": {},
    "version": 1
  },
  "userdoc": {
    "kind": "user",
    "methods": {},
    "version": 1
  }
}