{
  "contractName": "fileStorage",
  "abi": [
    {
      "inputs": [
        {
          "internalType": "int256",
          "name": "",
          "type": "int256"
        }
      ],
      "name": "files",
      "outputs": [
        {
          "internalType": "int256",
          "name": "_id",
          "type": "int256"
        },
        {
          "internalType": "string",
          "name": "_hash",
          "type": "string"
        }
      ],
      "stateMutability": "view",
      "type": "function",
      "constant": true
    },
    {
      "inputs": [
        {
          "internalType": "string",
          "name": "_hash",
          "type": "string"
        }
      ],
      "name": "set",
      "outputs": [],
      "stateMutability": "nonpayable",
      "type": "function"
    },
    {
      "inputs": [
        {
          "internalType": "int256",
          "name": "_temp",
          "type": "int256"
        }
      ],
      "name": "get",
      "outputs": [
        {
          "internalType": "string",
          "name": "",
          "type": "string"
        }
      ],
      "stateMutability": "view",
      "type": "function",
      "constant": true
    },
    {
      "inputs": [],
      "name": "getCounter",
      "outputs": [
        {
          "internalType": "int256",
          "name": "",
          "type": "int256"
        }
      ],
      "stateMutability": "view",
      "type": "function",
      "constant": true
    }
  ],
  "bytecode": "0x60806040526000805534801561001457600080fd5b50610772806100246000396000f3fe608060405234801561001057600080fd5b506004361061004c5760003560e01c80634ed3885e14610051578063846719e01461006d5780638ada066e1461009d578063eb2f22ac146100bb575b600080fd5b61006b600480360381019061006691906104b5565b6100ec565b005b61008760048036038101906100829190610534565b61015b565b60405161009491906105e9565b60405180910390f35b6100a5610203565b6040516100b2919061061a565b60405180910390f35b6100d560048036038101906100d09190610534565b61020c565b6040516100e3929190610635565b60405180910390f35b6000808154809291906100fe90610694565b9190505550604051806040016040528060005481526020018281525060016000805481526020019081526020016000206000820151816000015560208201518160010190805190602001906101549291906102b8565b5090505050565b606060016000838152602001908152602001600020600101805461017e9061070b565b80601f01602080910402602001604051908101604052809291908181526020018280546101aa9061070b565b80156101f75780601f106101cc576101008083540402835291602001916101f7565b820191906000526020600020905b8154815290600101906020018083116101da57829003601f168201915b50505050509050919050565b60008054905090565b60016020528060005260406000206000915090508060000154908060010180546102359061070b565b80601f01602080910402602001604051908101604052809291908181526020018280546102619061070b565b80156102ae5780601f10610283576101008083540402835291602001916102ae565b820191906000526020600020905b81548152906001019060200180831161029157829003601f168201915b5050505050905082565b8280546102c49061070b565b90600052602060002090601f0160209004810192826102e6576000855561032d565b82601f106102ff57805160ff191683800117855561032d565b8280016001018555821561032d579182015b8281111561032c578251825591602001919060010190610311565b5b50905061033a919061033e565b5090565b5b8082111561035757600081600090555060010161033f565b5090565b6000604051905090565b600080fd5b600080fd5b600080fd5b600080fd5b6000601f19601f8301169050919050565b7f4e487b7100000000000000000000000000000000000000000000000000000000600052604160045260246000fd5b6103c282610379565b810181811067ffffffffffffffff821117156103e1576103e061038a565b5b80604052505050565b60006103f461035b565b905061040082826103b9565b919050565b600067ffffffffffffffff8211156104205761041f61038a565b5b61042982610379565b9050602081019050919050565b82818337600083830152505050565b600061045861045384610405565b6103ea565b90508281526020810184848401111561047457610473610374565b5b61047f848285610436565b509392505050565b600082601f83011261049c5761049b61036f565b5b81356104ac848260208601610445565b91505092915050565b6000602082840312156104cb576104ca610365565b5b600082013567ffffffffffffffff8111156104e9576104e861036a565b5b6104f584828501610487565b91505092915050565b6000819050919050565b610511816104fe565b811461051c57600080fd5b50565b60008135905061052e81610508565b92915050565b60006020828403121561054a57610549610365565b5b60006105588482850161051f565b91505092915050565b600081519050919050565b600082825260208201905092915050565b60005b8381101561059b578082015181840152602081019050610580565b838111156105aa576000848401525b50505050565b60006105bb82610561565b6105c5818561056c565b93506105d581856020860161057d565b6105de81610379565b840191505092915050565b6000602082019050818103600083015261060381846105b0565b905092915050565b610614816104fe565b82525050565b600060208201905061062f600083018461060b565b92915050565b600060408201905061064a600083018561060b565b818103602083015261065c81846105b0565b90509392505050565b7f4e487b7100000000000000000000000000000000000000000000000000000000600052601160045260246000fd5b600061069f826104fe565b91507f7fffffffffffffffffffffffffffffffffffffffffffffffffffffffffffffff82036106d1576106d0610665565b5b600182019050919050565b7f4e487b7100000000000000000000000000000000000000000000000000000000600052602260045260246000fd5b6000600282049050600182168061072357607f821691505b602082108103610736576107356106dc565b5b5091905056fea26469706673582212209783288b13b740365d1bed9194b397203c9c8bbb855d61157850ad26008af3de64736f6c634300080d0033",
  "immutableReferences": {},
  "source": "\n/*\npragma solidity ^0.8.13;\n\ncontract hashTest {\n\n    uint counter = 1;\n    string[] files;\n\n    // Write Function\n    function set(string memory varHash) public {\n        files[counter] = varHash;\n        counter++;\n    }\n    //Read Function\n    function get(uint _counter) public view returns (string memory) {  \n        \n        return files[_counter];\n    }\n    function getCounter() public view returns (uint) {\n        return counter;\n    }\n}\n    \n*/\n\n\n\n\n\n\n\n\n\n\n// SPDX-License-Identifier: GPL-3.0\n\npragma solidity >=0.7.0 <0.9.0;\n\n// Prototype of concept\n\ncontract fileStorage {\n    int filecount = 0;\n    mapping(int => filedata) public files;\n\n    struct filedata{\n        int _id;\n        string _hash;\n    }\n\n    function set( string memory _hash) public {\n        filecount++;\n        files[filecount] = filedata(filecount,_hash);\n    }\n\n    function get(int _temp) public view returns (string memory) {\n\n        return files[_temp]._hash;\n    }\n\n    function getCounter() public view returns (int){\n        return filecount;\n    }\n}\n\n",
  "sourcePath": "/root/prototypes/protosite/src/contracts/fileStorage.sol",
  "compiler": {
    "name": "solc",
    "version": "0.8.13+commit.abaa5c0e.Emscripten.clang"
  },
  "schemaVersion": "3.4.6",
  "updatedAt": "2022-04-06T10:39:02.402Z",
  "networkType": "ethereum",
  "devdoc": {
    "kind": "dev",
    "methods": {},
    "version": 1
  },
  "userdoc": {
    "kind": "user",
    "methods": {},
    "version": 1
  }
}